{
  "_format": "hh-sol-artifact-1",
  "contractName": "CryptoPrediction",
  "sourceName": "contracts/CryptoPrediction.sol",
  "abi": [
    {
      "anonymous": false,
      "inputs": [
        {
          "indexed": true,
          "internalType": "address",
          "name": "predictor",
          "type": "address"
        },
        {
          "indexed": false,
          "internalType": "string",
          "name": "coin",
          "type": "string"
        },
        {
          "indexed": false,
          "internalType": "uint256",
          "name": "predictedPrice",
          "type": "uint256"
        },
        {
          "indexed": false,
          "internalType": "uint256",
          "name": "timestamp",
          "type": "uint256"
        }
      ],
      "name": "PredictionStored",
      "type": "event"
    },
    {
      "inputs": [],
      "name": "getPredictionCount",
      "outputs": [
        {
          "internalType": "uint256",
          "name": "",
          "type": "uint256"
        }
      ],
      "stateMutability": "view",
      "type": "function"
    },
    {
      "inputs": [],
      "name": "getPredictions",
      "outputs": [
        {
          "components": [
            {
              "internalType": "address",
              "name": "predictor",
              "type": "address"
            },
            {
              "internalType": "string",
              "name": "coin",
              "type": "string"
            },
            {
              "internalType": "uint256",
              "name": "predictedPrice",
              "type": "uint256"
            },
            {
              "internalType": "uint256",
              "name": "timestamp",
              "type": "uint256"
            }
          ],
          "internalType": "struct CryptoPrediction.Prediction[]",
          "name": "",
          "type": "tuple[]"
        }
      ],
      "stateMutability": "view",
      "type": "function"
    },
    {
      "inputs": [
        {
          "internalType": "uint256",
          "name": "",
          "type": "uint256"
        }
      ],
      "name": "predictions",
      "outputs": [
        {
          "internalType": "address",
          "name": "predictor",
          "type": "address"
        },
        {
          "internalType": "string",
          "name": "coin",
          "type": "string"
        },
        {
          "internalType": "uint256",
          "name": "predictedPrice",
          "type": "uint256"
        },
        {
          "internalType": "uint256",
          "name": "timestamp",
          "type": "uint256"
        }
      ],
      "stateMutability": "view",
      "type": "function"
    },
    {
      "inputs": [
        {
          "internalType": "string",
          "name": "_coin",
          "type": "string"
        },
        {
          "internalType": "uint256",
          "name": "_predictedPrice",
          "type": "uint256"
        }
      ],
      "name": "storePrediction",
      "outputs": [],
      "stateMutability": "nonpayable",
      "type": "function"
    }
  ],
  "bytecode": "0x608060405234801561001057600080fd5b50610cab806100206000396000f3fe608060405234801561001057600080fd5b506004361061004b5760003560e01c80624fbbb014610050578063016680961461008357806338aef05e146100a1578063c78c3a83146100bd575b600080fd5b61006a600480360381019061006591906104a5565b6100db565b60405161007a94939291906105b2565b60405180910390f35b61008b6101c3565b60405161009891906105fe565b60405180910390f35b6100bb60048036038101906100b6919061074e565b6101cf565b005b6100c5610300565b6040516100d29190610937565b60405180910390f35b600081815481106100eb57600080fd5b90600052602060002090600402016000915090508060000160009054906101000a900473ffffffffffffffffffffffffffffffffffffffff169080600101805461013490610988565b80601f016020809104026020016040519081016040528092919081815260200182805461016090610988565b80156101ad5780601f10610182576101008083540402835291602001916101ad565b820191906000526020600020905b81548152906001019060200180831161019057829003601f168201915b5050505050908060020154908060030154905084565b60008080549050905090565b600060405180608001604052803373ffffffffffffffffffffffffffffffffffffffff168152602001848152602001838152602001428152509050600081908060018154018082558091505060019003906000526020600020906004020160009091909190915060008201518160000160006101000a81548173ffffffffffffffffffffffffffffffffffffffff021916908373ffffffffffffffffffffffffffffffffffffffff16021790555060208201518160010190816102929190610b65565b50604082015181600201556060820151816003015550503373ffffffffffffffffffffffffffffffffffffffff167fe495bf138e5152f49624328a6683365da6c9483b77e4eed17fbfe1c4f1136c1d8484426040516102f393929190610c37565b60405180910390a2505050565b60606000805480602002602001604051908101604052809291908181526020016000905b8282101561045257838290600052602060002090600402016040518060800160405290816000820160009054906101000a900473ffffffffffffffffffffffffffffffffffffffff1673ffffffffffffffffffffffffffffffffffffffff1673ffffffffffffffffffffffffffffffffffffffff1681526020016001820180546103ad90610988565b80601f01602080910402602001604051908101604052809291908181526020018280546103d990610988565b80156104265780601f106103fb57610100808354040283529160200191610426565b820191906000526020600020905b81548152906001019060200180831161040957829003601f168201915b505050505081526020016002820154815260200160038201548152505081526020019060010190610324565b50505050905090565b6000604051905090565b600080fd5b600080fd5b6000819050919050565b6104828161046f565b811461048d57600080fd5b50565b60008135905061049f81610479565b92915050565b6000602082840312156104bb576104ba610465565b5b60006104c984828501610490565b91505092915050565b600073ffffffffffffffffffffffffffffffffffffffff82169050919050565b60006104fd826104d2565b9050919050565b61050d816104f2565b82525050565b600081519050919050565b600082825260208201905092915050565b60005b8381101561054d578082015181840152602081019050610532565b60008484015250505050565b6000601f19601f8301169050919050565b600061057582610513565b61057f818561051e565b935061058f81856020860161052f565b61059881610559565b840191505092915050565b6105ac8161046f565b82525050565b60006080820190506105c76000830187610504565b81810360208301526105d9818661056a565b90506105e860408301856105a3565b6105f560608301846105a3565b95945050505050565b600060208201905061061360008301846105a3565b92915050565b600080fd5b600080fd5b7f4e487b7100000000000000000000000000000000000000000000000000000000600052604160045260246000fd5b61065b82610559565b810181811067ffffffffffffffff8211171561067a57610679610623565b5b80604052505050565b600061068d61045b565b90506106998282610652565b919050565b600067ffffffffffffffff8211156106b9576106b8610623565b5b6106c282610559565b9050602081019050919050565b82818337600083830152505050565b60006106f16106ec8461069e565b610683565b90508281526020810184848401111561070d5761070c61061e565b5b6107188482856106cf565b509392505050565b600082601f83011261073557610734610619565b5b81356107458482602086016106de565b91505092915050565b6000806040838503121561076557610764610465565b5b600083013567ffffffffffffffff8111156107835761078261046a565b5b61078f85828601610720565b92505060206107a085828601610490565b9150509250929050565b600081519050919050565b600082825260208201905092915050565b6000819050602082019050919050565b6107df816104f2565b82525050565b600082825260208201905092915050565b600061080182610513565b61080b81856107e5565b935061081b81856020860161052f565b61082481610559565b840191505092915050565b6108388161046f565b82525050565b600060808301600083015161085660008601826107d6565b506020830151848203602086015261086e82826107f6565b9150506040830151610883604086018261082f565b506060830151610896606086018261082f565b508091505092915050565b60006108ad838361083e565b905092915050565b6000602082019050919050565b60006108cd826107aa565b6108d781856107b5565b9350836020820285016108e9856107c6565b8060005b85811015610925578484038952815161090685826108a1565b9450610911836108b5565b925060208a019950506001810190506108ed565b50829750879550505050505092915050565b6000602082019050818103600083015261095181846108c2565b905092915050565b7f4e487b7100000000000000000000000000000000000000000000000000000000600052602260045260246000fd5b600060028204905060018216806109a057607f821691505b6020821081036109b3576109b2610959565b5b50919050565b60008190508160005260206000209050919050565b60006020601f8301049050919050565b600082821b905092915050565b600060088302610a1b7fffffffffffffffffffffffffffffffffffffffffffffffffffffffffffffffff826109de565b610a2586836109de565b95508019841693508086168417925050509392505050565b6000819050919050565b6000610a62610a5d610a588461046f565b610a3d565b61046f565b9050919050565b6000819050919050565b610a7c83610a47565b610a90610a8882610a69565b8484546109eb565b825550505050565b600090565b610aa5610a98565b610ab0818484610a73565b505050565b5b81811015610ad457610ac9600082610a9d565b600181019050610ab6565b5050565b601f821115610b1957610aea816109b9565b610af3846109ce565b81016020851015610b02578190505b610b16610b0e856109ce565b830182610ab5565b50505b505050565b600082821c905092915050565b6000610b3c60001984600802610b1e565b1980831691505092915050565b6000610b558383610b2b565b9150826002028217905092915050565b610b6e82610513565b67ffffffffffffffff811115610b8757610b86610623565b5b610b918254610988565b610b9c828285610ad8565b600060209050601f831160018114610bcf5760008415610bbd578287015190505b610bc78582610b49565b865550610c2f565b601f198416610bdd866109b9565b60005b82811015610c0557848901518255600182019150602085019450602081019050610be0565b86831015610c225784890151610c1e601f891682610b2b565b8355505b6001600288020188555050505b505050505050565b60006060820190508181036000830152610c51818661056a565b9050610c6060208301856105a3565b610c6d60408301846105a3565b94935050505056fea264697066735822122080028d57cc8ef868d2b8963fcf0bfcdf769ac8b5b26cb46b5ca35c476adef83164736f6c63430008140033",
  "linkReferences": {},
  "deployedLinkReferences": {}
}